:1000000009C042C015C014C013C029C053C010C0DD
:100010000FC00EC011241FBECFE9CDBF20E0A0E667
:10002000B0E001C01D92A236B207E1F702D078C05D
:10003000E7CF87B38C6187BB88B3836088BB439A63
:1000400083B7826083BF86E986BF89B7846089BF32
:1000500085B7877E806185BF7894C29AFFCF1F9253
:100060000F920FB60F92112410926100109260004F
:10007000459B03C0C39AC49A02C0C398C4980F900A
:100080000FBE0F901F9018951F920F920FB60F92F0
:1000900011248F9385B78F7D85BF109261001092D8
:1000A00060008BB78F7B8BBF8F910F900FBE0F902F
:1000B0001F9018951F920F920FB60F9211242F9335
:1000C0008F939F9312BE8091600090916100019682
:1000D0009093610080936000809160009091610036
:1000E00080319742A8F0C298C0988BB780648BBFCC
:1000F000789480B7836080BF8E7F80BF85B7806231
:1001000085BF889585B78F7D85BF7894C29AC09A40
:100110009F918F912F910F900FBE0F901F90189568
:04012000F894FFCF81
:00000001FF
